:100000000C94FE000C941D010C941D010C941D0118
:100010000C941D010C941D010C941D010C941D01E8
:100020000C941D010C941D010C941D010C941D01D8
:100030000C941D010C941D010C941D010C941D01C8
:100040000C944B010C941D010C941D010C941D018A
:100050000C941D010C941D010C941D010C941D01A8
:100060000C941D010C941D010C941D010C941D0198
:100070000C941D010C941D010C941D010C941D0188
:100080000C941D010C941D010C941D010C941D0178
:100090000C941D010C941D010C941D010C941D0168
:1000A0000C941D010C941D010C941D010C941D0158
:1000B0000C941D010C941D010C941D010C941D0148
:1000C0000C941D010C941D010C941D010C941D0138
:1000D0000C941D010C941D010C941D010C941D0128
:1000E0000C941D010C941D010C941D010C941D0118
:1000F0000C941D010C941D010C941D010C941D0108
:100100000C941D010C941D010C941D010C941D01F7
:100110000C941D010C941D010C941D010C941D01E7
:100120000C941D010C941D010C941D010C941D01D7
:100130000C941D010C941D010C941D010C941D01C7
:100140000C941D010C941D010C941D010C941D01B7
:100150000C941D010C941D010C941D010C941D01A7
:100160000C941D010C941D010C941D010C941D0197
:100170000C941D010C941D010C941D010C941D0187
:100180000C941D010C941D010C941D010C941D0177
:100190000C941D010C941D010C941D010C941D0167
:1001A0000C941D010C941D010C941D010C941D0157
:1001B0000C941D010C941D010C941D010C941D0147
:1001C0000C941D010C941D010C941D010C941D0137
:1001D0000C941D010C941D010C941D010C941D0127
:1001E0000C941D010C941D010C941D010C941D0117
:1001F0000C941D010C941D010C941D0111241FBEB3
:10020000CFEFCDBFDFE2DEBF10E2A0E0B0E2E0E280
:10021000F4E000E00BBF02C007900D92A031B107DF
:10022000D9F720E2A0E1B0E201C01D92A131B207EE
:10023000E1F70E94A8010C940E020C9400008FEFCD
:10024000809305068FE0809365060895E0E4F6E06C
:1002500086858F608687E0E0F8E082E0808383EE29
:10026000818385E291E086A397A37894A0EAB0E029
:1002700012968C911297816012968C9381E08783FD
:1002800012A613A614A615A616A617A68FEF90E021
:1002900080A791A708951F920F920FB60F92112475
:1002A0000BB60F928F939F93AF93BF93EF93FF93F0
:1002B000809110208F5F80931020843010F0109276
:1002C0001020E0911020F0E0EA5FFF4D808190E087
:1002D000A0E0B8E09A968D939C939B97E0911020B4
:1002E000F0E0EA5FFF4D838190E09E968D939C93B2
:1002F0009F97E0911020F0E0EA5FFF4D868190E04B
:100300009C968D939C939D97E0911020F0E0ED5F7B
:10031000FF4D8081809580930406A0E6B6E08FE0D3
:1003200015968C931597E0911020F0E0E050F04E78
:10033000808116968C93FF91EF91BF91AF919F9121
:100340008F910F900BBE0F900FBE0F901F901895BE
:10035000E0E0F6E08FEF80838CEF8483E0E6F6E068
:100360008FE08183858380EE809341060E94260181
:10037000E0E0F8E012A613A682E390E086A797A734
:1003800084E690E084A795A70F2EFBE09F2EF02D2A
:10039000DCE0EE24E394F12C00E016E00F2EF0E612
:1003A000CF2EF6E0DF2EF02D0F2EF3E0AF2EB12C86
:1003B000F02D30C00E941F01892D8C1B8C30D0F491
:1003C0008D2F8C1B893058F0C7010C2E02C0880F6E
:1003D000991F0A94E2F7F601868315820BC08CEF11
:1003E0008C0F970102C0220F331F8A95E2F7F801A4
:1003F00026831582C150FFE32DE033E0F150204009
:100400003040E1F700C00000CF3FA1F681E0A81A1C
:10041000B10851F20E941F01CBE0EDCFF894FFCF5D
:10042000000000FFFF000000000F000000000000BF
:00000001FF
