:100000000C94FE000C941D010C941D010C941D0118
:100010000C941D010C941D010C941D010C941D01E8
:100020000C941D010C941D010C941D010C941D01D8
:100030000C941D010C941D010C941D010C941D01C8
:100040000C9444010C941D010C941D010C941D0191
:100050000C941D010C941D010C941D010C941D01A8
:100060000C941D010C941D010C941D010C941D0198
:100070000C941D010C941D010C941D010C941D0188
:100080000C941D010C941D010C941D010C941D0178
:100090000C941D010C941D010C941D010C941D0168
:1000A0000C941D010C941D010C941D010C941D0158
:1000B0000C941D010C941D010C941D010C941D0148
:1000C0000C941D010C941D010C941D010C941D0138
:1000D0000C941D010C941D010C941D010C941D0128
:1000E0000C941D010C941D010C941D010C941D0118
:1000F0000C941D010C941D010C941D010C941D0108
:100100000C941D010C941D010C941D010C941D01F7
:100110000C941D010C941D010C941D010C941D01E7
:100120000C941D010C941D010C941D010C941D01D7
:100130000C941D010C941D010C941D010C941D01C7
:100140000C941D010C941D010C941D010C941D01B7
:100150000C941D010C941D010C941D010C941D01A7
:100160000C941D010C941D010C941D010C941D0197
:100170000C941D010C941D010C941D010C941D0187
:100180000C941D010C941D010C941D010C941D0177
:100190000C941D010C941D010C941D010C941D0167
:1001A0000C941D010C941D010C941D010C941D0157
:1001B0000C941D010C941D010C941D010C941D0147
:1001C0000C941D010C941D010C941D010C941D0137
:1001D0000C941D010C941D010C941D010C941D0127
:1001E0000C941D010C941D010C941D010C941D0117
:1001F0000C941D010C941D010C941D0111241FBEB3
:10020000CFEFCDBFDFE2DEBF10E2A0E0B0E2E8E773
:10021000F3E000E00BBF02C007900D92AC30B107D5
:10022000D9F720E2ACE0B0E201C01D92A031B207E4
:10023000E1F70E94A0010C94BA010C940000E0E4E4
:10024000F6E086858F608687E0E0F8E083E08083D3
:1002500083EE818385E191E086A397A37894A0EA59
:10026000B0E012968C911297816012968C9381E087
:10027000878312A613A614A615A616A617A680E0B5
:1002800091E080A791A708951F920F920FB60F9249
:1002900011240BB60F928F939F93AF93BF93EF935D
:1002A000FF9380910F208F5F80930F20833010F099
:1002B00010920F20E0910F20F0E0ED5FFF4D808164
:1002C00090E0A0E0B8E09A968D939C939B97E09184
:1002D0000F20F0E0ED5FFF4D838190E09E968D93BF
:1002E0009C939F97E0910F20F0E0ED5FFF4D86819A
:1002F00090E09C968D939C939D97E0910F20F0E069
:10030000E050F04E808180930406A0E6B6E08FE0D6
:1003100016968C931697E0910F20F0E0E45FFF4D66
:10032000808115968C93FF91EF91BF91AF919F9132
:100330008F910F900BBE0F900FBE0F901F901895CE
:10034000E0E0F6E08FEF8083A0EBB0E08C93908943
:100350009764908B8683E0E6F6E08FE081838C9350
:1003600090899764908B868380EE809341060E94EB
:080370001F01FFCFF894FFCF3D
:0C037800204080FFFF0000FF000000FF9D
:00000001FF
