:100000000C94FE000C941D010C941D010C941D0118
:100010000C941D010C941D010C941D010C941D01E8
:100020000C941D010C941D010C941D010C941D01D8
:100030000C941D010C941D010C941D010C941D01C8
:100040000C9443010C941D010C941D010C941D0192
:100050000C94BE010C941D010C941D010C941D0107
:100060000C941D010C941D010C941D010C941D0198
:100070000C941D010C941D010C941D010C941D0188
:100080000C941D010C941D010C941D010C941D0178
:100090000C941D010C941D010C941D010C941D0168
:1000A0000C941D010C941D010C941D010C941D0158
:1000B0000C941D010C941D010C941D010C941D0148
:1000C0000C941D010C941D010C941D010C941D0138
:1000D0000C941D010C941D010C941D010C941D0128
:1000E0000C941D010C941D010C941D010C941D0118
:1000F0000C941D010C941D010C941D010C941D0108
:100100000C941D010C941D010C941D010C941D01F7
:100110000C941D010C941D010C941D010C941D01E7
:100120000C941D010C941D010C941D010C941D01D7
:100130000C941D010C941D010C941D010C941D01C7
:100140000C941D010C941D010C941D010C941D01B7
:100150000C941D010C941D010C941D010C941D01A7
:100160000C941D010C941D010C941D010C941D0197
:100170000C941D010C941D010C941D010C941D0187
:100180000C941D010C941D010C941D010C941D0177
:100190000C941D010C941D010C941D010C941D0167
:1001A0000C941D010C941D010C941D010C941D0157
:1001B0000C941D010C941D010C941D010C941D0147
:1001C0000C941D010C941D010C941D010C941D0137
:1001D0000C941D010C941D010C941D010C941D0127
:1001E0000C941D010C941D010C941D010C941D0117
:1001F0000C941D010C941D010C941D0111241FBEB3
:10020000CFEFCDBFDFE2DEBF10E2A0E0B0E2E2EA76
:10021000F4E000E00BBF02C007900D92AE31B107D1
:10022000D9F720E2AEE1B0E201C01D92A434B207DA
:10023000E1F70E940F020C944F020C940000E0E4DE
:10024000F6E086858F608687E0E0F8E091E09083B5
:1002500083EE818325E632E026A337A37894A0EAD3
:10026000B0E012968C911297816012968C939783CE
:1002700012A613A614A615A616A617A680E091E04E
:1002800080A791A708951F920F920FB60F92112485
:100290000BB60F928F939F93AF93BF93EF93FF9300
:1002A00080911F208F5F80931F2090911D208917C0
:1002B00010F010921F2080911F2090E0FC01EE0FA3
:1002C000FF1F8E0F9F1FFC01E05EFF4D808190E0BD
:1002D000A0E0B8E09A968D939C939B9780911F2005
:1002E00090E0FC01EE0FFF1F8E0F9F1FFC01E05EF0
:1002F000FF4D818190E09E968D939C939F97809176
:100300001F2090E0FC01EE0FFF1F8E0F9F1FFC01CE
:10031000E05EFF4D828190E09C968D939C939D972B
:10032000E0911F20F0E0EF5EFF4D80818093040696
:10033000A0E6B6E08FE016968C931697E0911F200A
:10034000F0E0EB5FFF4D808115968C93FF91EF916C
:10035000BF91AF919F918F910F900BBE0F900FBEE9
:100360000F901F901895E0E4F8E087E0808381E02B
:10037000868382E090E086A397A308951F920F9250
:100380000FB60F9211240BB60F922F938F939F935A
:10039000EF93FF9320911E2080910220922F980FBF
:1003A00090931E20911105C0819580930220209387
:1003B0001E202091042080910120922F980F90936D
:1003C0000420911105C08195809301202093042081
:1003D0009091002080910320890F80930320811148
:1003E00009C0292F21952093002020911E20291B30
:1003F00020931E2090910420E0E2F0E220911E2044
:1004000021A392A383A3FF91EF919F918F912F91AD
:100410000F900BBE0F900FBE0F901F901895E0E04D
:10042000F6E08FEF8083A0EBB0E08C939089976427
:10043000908B8683E0E6F6E08FE081838C93908951
:100440009764908B868380EE809341060E941F0103
:100450000E94B301E0E2F0E229E1208311821282DE
:10046000138292E394831582168284E68783208721
:10047000848721E0258716861786108A818B828BD8
:1004800084E1838B148A958B96E4968B178A90E58A
:10049000908F118E828F838F148E958FFFCFF8945B
:0204A000FFCF8C
:1004A200FF01019999000000000000000008040209
:0E04B200018040201008040201000000000339
:00000001FF
